{
  "_format": "hh-sol-artifact-1",
  "contractName": "Marketplace",
  "sourceName": "contracts/MarketNFT.sol",
  "abi": [
    {
      "inputs": [
        {
          "internalType": "address",
          "name": "_ticketNFT",
          "type": "address"
        },
        {
          "internalType": "uint256",
          "name": "_maxResalePrice",
          "type": "uint256"
        },
        {
          "internalType": "uint256",
          "name": "_royaltyPercentage",
          "type": "uint256"
        }
      ],
      "stateMutability": "nonpayable",
      "type": "constructor"
    },
    {
      "inputs": [],
      "name": "ReentrancyGuardReentrantCall",
      "type": "error"
    },
    {
      "inputs": [
        {
          "internalType": "uint256",
          "name": "tokenId",
          "type": "uint256"
        }
      ],
      "name": "acceptBid",
      "outputs": [],
      "stateMutability": "nonpayable",
      "type": "function"
    },
    {
      "inputs": [
        {
          "internalType": "uint256",
          "name": "tokenId",
          "type": "uint256"
        }
      ],
      "name": "buyTicket",
      "outputs": [],
      "stateMutability": "payable",
      "type": "function"
    },
    {
      "inputs": [
        {
          "internalType": "uint256",
          "name": "tokenId",
          "type": "uint256"
        }
      ],
      "name": "cancelListing",
      "outputs": [],
      "stateMutability": "nonpayable",
      "type": "function"
    },
    {
      "inputs": [
        {
          "internalType": "uint256",
          "name": "",
          "type": "uint256"
        }
      ],
      "name": "highestBids",
      "outputs": [
        {
          "internalType": "address",
          "name": "bidder",
          "type": "address"
        },
        {
          "internalType": "uint256",
          "name": "amount",
          "type": "uint256"
        }
      ],
      "stateMutability": "view",
      "type": "function"
    },
    {
      "inputs": [
        {
          "internalType": "uint256",
          "name": "tokenId",
          "type": "uint256"
        },
        {
          "internalType": "uint256",
          "name": "price",
          "type": "uint256"
        }
      ],
      "name": "listTicket",
      "outputs": [],
      "stateMutability": "nonpayable",
      "type": "function"
    },
    {
      "inputs": [
        {
          "internalType": "uint256",
          "name": "",
          "type": "uint256"
        }
      ],
      "name": "listings",
      "outputs": [
        {
          "internalType": "uint256",
          "name": "price",
          "type": "uint256"
        },
        {
          "internalType": "address",
          "name": "seller",
          "type": "address"
        }
      ],
      "stateMutability": "view",
      "type": "function"
    },
    {
      "inputs": [],
      "name": "maxResalePrice",
      "outputs": [
        {
          "internalType": "uint256",
          "name": "",
          "type": "uint256"
        }
      ],
      "stateMutability": "view",
      "type": "function"
    },
    {
      "inputs": [],
      "name": "organizer",
      "outputs": [
        {
          "internalType": "address",
          "name": "",
          "type": "address"
        }
      ],
      "stateMutability": "view",
      "type": "function"
    },
    {
      "inputs": [
        {
          "internalType": "uint256",
          "name": "tokenId",
          "type": "uint256"
        }
      ],
      "name": "placeBid",
      "outputs": [],
      "stateMutability": "payable",
      "type": "function"
    },
    {
      "inputs": [],
      "name": "royaltyPercentage",
      "outputs": [
        {
          "internalType": "uint256",
          "name": "",
          "type": "uint256"
        }
      ],
      "stateMutability": "view",
      "type": "function"
    },
    {
      "inputs": [],
      "name": "ticketNFT",
      "outputs": [
        {
          "internalType": "contract IERC721",
          "name": "",
          "type": "address"
        }
      ],
      "stateMutability": "view",
      "type": "function"
    }
  ],
  "bytecode": "0x608060405234801561001057600080fd5b50604051610c8d380380610c8d83398101604081905261002f916100c5565b60016000556001600160a01b03831661008e5760405162461bcd60e51b815260206004820152601a60248201527f496e76616c6964207469636b6574204e46542061646472657373000000000000604482015260640160405180910390fd5b600680546001600160a01b039094166001600160a01b03199485161790556003919091556005556004805490911633179055610108565b6000806000606084860312156100da57600080fd5b83516001600160a01b03811681146100f157600080fd5b602085015160409095015190969495509392505050565b610b76806101176000396000f3fe60806040526004361061009c5760003560e01c80636120326511610064578063612032651461018b57806367dd74ca146101c35780638a71bb2d146101d65780639979ef45146101ec578063b393391b146101ff578063de74e57b1461021f57600080fd5b8063111cb258146100a15780632b1fd58a14610105578063305a67a814610127578063305a905a1461014757806339e9e8eb14610167575b600080fd5b3480156100ad57600080fd5b506100e16100bc366004610a49565b600260205260009081526040902080546001909101546001600160a01b039091169082565b604080516001600160a01b0390931683526020830191909152015b60405180910390f35b34801561011157600080fd5b50610125610120366004610a49565b610279565b005b34801561013357600080fd5b50610125610142366004610a49565b6104ac565b34801561015357600080fd5b50610125610162366004610a62565b610599565b34801561017357600080fd5b5061017d60035481565b6040519081526020016100fc565b34801561019757600080fd5b506004546101ab906001600160a01b031681565b6040516001600160a01b0390911681526020016100fc565b6101256101d1366004610a49565b610762565b3480156101e257600080fd5b5061017d60055481565b6101256101fa366004610a49565b61091f565b34801561020b57600080fd5b506006546101ab906001600160a01b031681565b34801561022b57600080fd5b5061025c61023a366004610a49565b600160208190526000918252604090912080549101546001600160a01b031682565b604080519283526001600160a01b039091166020830152016100fc565b610281610a18565b600081815260016020819052604090912001546001600160a01b031633146102e95760405162461bcd60e51b81526020600482015260166024820152752cb7ba9030b932903737ba103a34329039b2b63632b960511b60448201526064015b60405180910390fd5b600081815260026020908152604091829020825180840190935280546001600160a01b03168352600101549082018190526103575760405162461bcd60e51b815260206004820152600e60248201526d139bc8189a591cc81c1b1858d95960921b60448201526064016102e0565b60006064600554836020015161036d9190610a9a565b6103779190610ab7565b9050600081836020015161038b9190610ad9565b604051909150339082156108fc029083906000818181858888f193505050501580156103bb573d6000803e3d6000fd5b506004546040516001600160a01b039091169083156108fc029084906000818181858888f193505050501580156103f6573d6000803e3d6000fd5b5060065483516040516323b872dd60e01b81526001600160a01b03909216916323b872dd9161042c913091908990600401610aec565b600060405180830381600087803b15801561044657600080fd5b505af115801561045a573d6000803e3d6000fd5b505050600085815260026020908152604080832080546001600160a01b031990811682556001918201859055928190529083209283559190910180549091169055506104a99250610a42915050565b50565b600081815260016020819052604090912001546001600160a01b0316331461050f5760405162461bcd60e51b81526020600482015260166024820152752cb7ba9030b932903737ba103a34329039b2b63632b960511b60448201526064016102e0565b6006546040516323b872dd60e01b81526001600160a01b03909116906323b872dd9061054390309033908690600401610aec565b600060405180830381600087803b15801561055d57600080fd5b505af1158015610571573d6000803e3d6000fd5b50505060009182525060016020819052604082209182550180546001600160a01b0319169055565b6003548111156105eb5760405162461bcd60e51b815260206004820152601d60248201527f50726963652065786365656473206d6178696d756d20616c6c6f77656400000060448201526064016102e0565b6006546040516331a9108f60e11b81526004810184905233916001600160a01b031690636352211e90602401602060405180830381865afa158015610634573d6000803e3d6000fd5b505050506040513d601f19601f820116820180604052508101906106589190610b10565b6001600160a01b0316146106ae5760405162461bcd60e51b815260206004820152601a60248201527f596f7520646f206e6f74206f776e2074686973207469636b657400000000000060448201526064016102e0565b6006546040516323b872dd60e01b81526001600160a01b03909116906323b872dd906106e290339030908790600401610aec565b600060405180830381600087803b1580156106fc57600080fd5b505af1158015610710573d6000803e3d6000fd5b50506040805180820182529384523360208086019182526000968752600190819052919095209351845593519290930180546001600160a01b0319166001600160a01b03909316929092179091555050565b61076a610a18565b600081815260016020818152604092839020835180850190945280548085529201546001600160a01b0316908301523410156107dd5760405162461bcd60e51b8152602060048201526012602482015271496e73756666696369656e742066756e647360701b60448201526064016102e0565b6000606460055483600001516107f39190610a9a565b6107fd9190610ab7565b905060008183600001516108119190610ad9565b60208401516040519192506001600160a01b03169082156108fc029083906000818181858888f1935050505015801561084e573d6000803e3d6000fd5b506004546040516001600160a01b039091169083156108fc029084906000818181858888f19350505050158015610889573d6000803e3d6000fd5b506006546040516323b872dd60e01b81526001600160a01b03909116906323b872dd906108be90309033908990600401610aec565b600060405180830381600087803b1580156108d857600080fd5b505af11580156108ec573d6000803e3d6000fd5b505050600085815260016020819052604082209182550180546001600160a01b0319169055506104a99250610a42915050565b600081815260026020526040902060010154341161096d5760405162461bcd60e51b815260206004820152600b60248201526a42696420746f6f206c6f7760a81b60448201526064016102e0565b600081815260026020526040902060010154156109d157600081815260026020526040808220805460019091015491516001600160a01b039091169282156108fc02929190818181858888f193505050501580156109cf573d6000803e3d6000fd5b505b60408051808201825233815234602080830191825260009485526002905291909220915182546001600160a01b0319166001600160a01b0390911617825551600190910155565b600260005403610a3b57604051633ee5aeb560e01b815260040160405180910390fd5b6002600055565b6001600055565b600060208284031215610a5b57600080fd5b5035919050565b60008060408385031215610a7557600080fd5b50508035926020909101359150565b634e487b7160e01b600052601160045260246000fd5b8082028115828204841417610ab157610ab1610a84565b92915050565b600082610ad457634e487b7160e01b600052601260045260246000fd5b500490565b81810381811115610ab157610ab1610a84565b6001600160a01b039384168152919092166020820152604081019190915260600190565b600060208284031215610b2257600080fd5b81516001600160a01b0381168114610b3957600080fd5b939250505056fea26469706673582212200889c3b890baadd17cffb61f1c72ee0947f8e311350715d42baaf89906744b6264736f6c63430008140033",
  "linkReferences": {},
  "deployedLinkReferences": {}
}