{
  "_format": "hh-sol-artifact-1",
  "contractName": "TicketNFT",
  "sourceName": "contracts/TicketNFT.sol",
  "abi": [
    {
      "inputs": [
        {
          "internalType": "string",
          "name": "_name",
          "type": "string"
        },
        {
          "internalType": "string",
          "name": "_symbol",
          "type": "string"
        },
        {
          "internalType": "string",
          "name": "_uri",
          "type": "string"
        },
        {
          "internalType": "uint256",
          "name": "_maxTicketsPerWallet",
          "type": "uint256"
        },
        {
          "internalType": "address",
          "name": "_initialOwner",
          "type": "address"
        }
      ],
      "stateMutability": "nonpayable",
      "type": "constructor"
    },
    {
      "inputs": [
        {
          "internalType": "address",
          "name": "sender",
          "type": "address"
        },
        {
          "internalType": "uint256",
          "name": "tokenId",
          "type": "uint256"
        },
        {
          "internalType": "address",
          "name": "owner",
          "type": "address"
        }
      ],
      "name": "ERC721IncorrectOwner",
      "type": "error"
    },
    {
      "inputs": [
        {
          "internalType": "address",
          "name": "operator",
          "type": "address"
        },
        {
          "internalType": "uint256",
          "name": "tokenId",
          "type": "uint256"
        }
      ],
      "name": "ERC721InsufficientApproval",
      "type": "error"
    },
    {
      "inputs": [
        {
          "internalType": "address",
          "name": "approver",
          "type": "address"
        }
      ],
      "name": "ERC721InvalidApprover",
      "type": "error"
    },
    {
      "inputs": [
        {
          "internalType": "address",
          "name": "operator",
          "type": "address"
        }
      ],
      "name": "ERC721InvalidOperator",
      "type": "error"
    },
    {
      "inputs": [
        {
          "internalType": "address",
          "name": "owner",
          "type": "address"
        }
      ],
      "name": "ERC721InvalidOwner",
      "type": "error"
    },
    {
      "inputs": [
        {
          "internalType": "address",
          "name": "receiver",
          "type": "address"
        }
      ],
      "name": "ERC721InvalidReceiver",
      "type": "error"
    },
    {
      "inputs": [
        {
          "internalType": "address",
          "name": "sender",
          "type": "address"
        }
      ],
      "name": "ERC721InvalidSender",
      "type": "error"
    },
    {
      "inputs": [
        {
          "internalType": "uint256",
          "name": "tokenId",
          "type": "uint256"
        }
      ],
      "name": "ERC721NonexistentToken",
      "type": "error"
    },
    {
      "inputs": [
        {
          "internalType": "address",
          "name": "owner",
          "type": "address"
        }
      ],
      "name": "OwnableInvalidOwner",
      "type": "error"
    },
    {
      "inputs": [
        {
          "internalType": "address",
          "name": "account",
          "type": "address"
        }
      ],
      "name": "OwnableUnauthorizedAccount",
      "type": "error"
    },
    {
      "anonymous": false,
      "inputs": [
        {
          "indexed": true,
          "internalType": "address",
          "name": "owner",
          "type": "address"
        },
        {
          "indexed": true,
          "internalType": "address",
          "name": "approved",
          "type": "address"
        },
        {
          "indexed": true,
          "internalType": "uint256",
          "name": "tokenId",
          "type": "uint256"
        }
      ],
      "name": "Approval",
      "type": "event"
    },
    {
      "anonymous": false,
      "inputs": [
        {
          "indexed": true,
          "internalType": "address",
          "name": "owner",
          "type": "address"
        },
        {
          "indexed": true,
          "internalType": "address",
          "name": "operator",
          "type": "address"
        },
        {
          "indexed": false,
          "internalType": "bool",
          "name": "approved",
          "type": "bool"
        }
      ],
      "name": "ApprovalForAll",
      "type": "event"
    },
    {
      "anonymous": false,
      "inputs": [
        {
          "indexed": true,
          "internalType": "address",
          "name": "previousOwner",
          "type": "address"
        },
        {
          "indexed": true,
          "internalType": "address",
          "name": "newOwner",
          "type": "address"
        }
      ],
      "name": "OwnershipTransferred",
      "type": "event"
    },
    {
      "anonymous": false,
      "inputs": [
        {
          "indexed": true,
          "internalType": "address",
          "name": "from",
          "type": "address"
        },
        {
          "indexed": true,
          "internalType": "address",
          "name": "to",
          "type": "address"
        },
        {
          "indexed": true,
          "internalType": "uint256",
          "name": "tokenId",
          "type": "uint256"
        }
      ],
      "name": "Transfer",
      "type": "event"
    },
    {
      "inputs": [
        {
          "internalType": "address",
          "name": "to",
          "type": "address"
        },
        {
          "internalType": "uint256",
          "name": "tokenId",
          "type": "uint256"
        }
      ],
      "name": "approve",
      "outputs": [],
      "stateMutability": "nonpayable",
      "type": "function"
    },
    {
      "inputs": [
        {
          "internalType": "address",
          "name": "owner",
          "type": "address"
        }
      ],
      "name": "balanceOf",
      "outputs": [
        {
          "internalType": "uint256",
          "name": "",
          "type": "uint256"
        }
      ],
      "stateMutability": "view",
      "type": "function"
    },
    {
      "inputs": [],
      "name": "baseURI",
      "outputs": [
        {
          "internalType": "string",
          "name": "",
          "type": "string"
        }
      ],
      "stateMutability": "view",
      "type": "function"
    },
    {
      "inputs": [
        {
          "internalType": "uint256",
          "name": "tokenId",
          "type": "uint256"
        }
      ],
      "name": "getApproved",
      "outputs": [
        {
          "internalType": "address",
          "name": "",
          "type": "address"
        }
      ],
      "stateMutability": "view",
      "type": "function"
    },
    {
      "inputs": [
        {
          "internalType": "address",
          "name": "owner",
          "type": "address"
        },
        {
          "internalType": "address",
          "name": "operator",
          "type": "address"
        }
      ],
      "name": "isApprovedForAll",
      "outputs": [
        {
          "internalType": "bool",
          "name": "",
          "type": "bool"
        }
      ],
      "stateMutability": "view",
      "type": "function"
    },
    {
      "inputs": [
        {
          "internalType": "uint256",
          "name": "tokenId",
          "type": "uint256"
        }
      ],
      "name": "isUsed",
      "outputs": [
        {
          "internalType": "bool",
          "name": "",
          "type": "bool"
        }
      ],
      "stateMutability": "view",
      "type": "function"
    },
    {
      "inputs": [],
      "name": "maxTicketsPerWallet",
      "outputs": [
        {
          "internalType": "uint256",
          "name": "",
          "type": "uint256"
        }
      ],
      "stateMutability": "view",
      "type": "function"
    },
    {
      "inputs": [
        {
          "internalType": "address",
          "name": "to",
          "type": "address"
        }
      ],
      "name": "mint",
      "outputs": [],
      "stateMutability": "nonpayable",
      "type": "function"
    },
    {
      "inputs": [],
      "name": "name",
      "outputs": [
        {
          "internalType": "string",
          "name": "",
          "type": "string"
        }
      ],
      "stateMutability": "view",
      "type": "function"
    },
    {
      "inputs": [],
      "name": "nextTokenId",
      "outputs": [
        {
          "internalType": "uint256",
          "name": "",
          "type": "uint256"
        }
      ],
      "stateMutability": "view",
      "type": "function"
    },
    {
      "inputs": [],
      "name": "owner",
      "outputs": [
        {
          "internalType": "address",
          "name": "",
          "type": "address"
        }
      ],
      "stateMutability": "view",
      "type": "function"
    },
    {
      "inputs": [
        {
          "internalType": "uint256",
          "name": "tokenId",
          "type": "uint256"
        }
      ],
      "name": "ownerOf",
      "outputs": [
        {
          "internalType": "address",
          "name": "",
          "type": "address"
        }
      ],
      "stateMutability": "view",
      "type": "function"
    },
    {
      "inputs": [],
      "name": "renounceOwnership",
      "outputs": [],
      "stateMutability": "nonpayable",
      "type": "function"
    },
    {
      "inputs": [
        {
          "internalType": "address",
          "name": "from",
          "type": "address"
        },
        {
          "internalType": "address",
          "name": "to",
          "type": "address"
        },
        {
          "internalType": "uint256",
          "name": "tokenId",
          "type": "uint256"
        }
      ],
      "name": "safeTransferFrom",
      "outputs": [],
      "stateMutability": "nonpayable",
      "type": "function"
    },
    {
      "inputs": [
        {
          "internalType": "address",
          "name": "from",
          "type": "address"
        },
        {
          "internalType": "address",
          "name": "to",
          "type": "address"
        },
        {
          "internalType": "uint256",
          "name": "tokenId",
          "type": "uint256"
        },
        {
          "internalType": "bytes",
          "name": "data",
          "type": "bytes"
        }
      ],
      "name": "safeTransferFrom",
      "outputs": [],
      "stateMutability": "nonpayable",
      "type": "function"
    },
    {
      "inputs": [
        {
          "internalType": "address",
          "name": "operator",
          "type": "address"
        },
        {
          "internalType": "bool",
          "name": "approved",
          "type": "bool"
        }
      ],
      "name": "setApprovalForAll",
      "outputs": [],
      "stateMutability": "nonpayable",
      "type": "function"
    },
    {
      "inputs": [
        {
          "internalType": "string",
          "name": "_newBaseURI",
          "type": "string"
        }
      ],
      "name": "setBaseURI",
      "outputs": [],
      "stateMutability": "nonpayable",
      "type": "function"
    },
    {
      "inputs": [
        {
          "internalType": "bytes4",
          "name": "interfaceId",
          "type": "bytes4"
        }
      ],
      "name": "supportsInterface",
      "outputs": [
        {
          "internalType": "bool",
          "name": "",
          "type": "bool"
        }
      ],
      "stateMutability": "view",
      "type": "function"
    },
    {
      "inputs": [],
      "name": "symbol",
      "outputs": [
        {
          "internalType": "string",
          "name": "",
          "type": "string"
        }
      ],
      "stateMutability": "view",
      "type": "function"
    },
    {
      "inputs": [
        {
          "internalType": "address",
          "name": "",
          "type": "address"
        }
      ],
      "name": "ticketsPerWallet",
      "outputs": [
        {
          "internalType": "uint256",
          "name": "",
          "type": "uint256"
        }
      ],
      "stateMutability": "view",
      "type": "function"
    },
    {
      "inputs": [
        {
          "internalType": "uint256",
          "name": "tokenId",
          "type": "uint256"
        }
      ],
      "name": "tokenURI",
      "outputs": [
        {
          "internalType": "string",
          "name": "",
          "type": "string"
        }
      ],
      "stateMutability": "view",
      "type": "function"
    },
    {
      "inputs": [
        {
          "internalType": "address",
          "name": "from",
          "type": "address"
        },
        {
          "internalType": "address",
          "name": "to",
          "type": "address"
        },
        {
          "internalType": "uint256",
          "name": "tokenId",
          "type": "uint256"
        }
      ],
      "name": "transferFrom",
      "outputs": [],
      "stateMutability": "nonpayable",
      "type": "function"
    },
    {
      "inputs": [
        {
          "internalType": "address",
          "name": "newOwner",
          "type": "address"
        }
      ],
      "name": "transferOwnership",
      "outputs": [],
      "stateMutability": "nonpayable",
      "type": "function"
    }
  ],
  "bytecode": "0x60806040523480156200001157600080fd5b5060405162001850380380620018508339810160408190526200003491620001c6565b808585600062000045838262000314565b50600162000054828262000314565b5050506001600160a01b0381166200008657604051631e4fbdf760e01b81526000600482015260240160405180910390fd5b6200009181620000af565b506008620000a0848262000314565b5050600a5550620003e0915050565b600680546001600160a01b038381166001600160a01b0319831681179093556040519116919082907f8be0079c531659141344cd1fd0a4f28419497f9722a3daafe3b4186f6b6457e090600090a35050565b634e487b7160e01b600052604160045260246000fd5b600082601f8301126200012957600080fd5b81516001600160401b038082111562000146576200014662000101565b604051601f8301601f19908116603f0116810190828211818310171562000171576200017162000101565b816040528381526020925086838588010111156200018e57600080fd5b600091505b83821015620001b2578582018301518183018401529082019062000193565b600093810190920192909252949350505050565b600080600080600060a08688031215620001df57600080fd5b85516001600160401b0380821115620001f757600080fd5b6200020589838a0162000117565b965060208801519150808211156200021c57600080fd5b6200022a89838a0162000117565b955060408801519150808211156200024157600080fd5b50620002508882890162000117565b60608801516080890151919550935090506001600160a01b03811681146200027757600080fd5b809150509295509295909350565b600181811c908216806200029a57607f821691505b602082108103620002bb57634e487b7160e01b600052602260045260246000fd5b50919050565b601f8211156200030f57600081815260208120601f850160051c81016020861015620002ea5750805b601f850160051c820191505b818110156200030b57828155600101620002f6565b5050505b505050565b81516001600160401b0381111562000330576200033062000101565b620003488162000341845462000285565b84620002c1565b602080601f831160018114620003805760008415620003675750858301515b600019600386901b1c1916600185901b1785556200030b565b600085815260208120601f198616915b82811015620003b15788860151825594840194600190910190840162000390565b5085821015620003d05787850151600019600388901b60f8161c191681555b5050505050600190811b01905550565b61146080620003f06000396000f3fe608060405234801561001057600080fd5b506004361061014d5760003560e01c80636c0360eb116100c3578063a22cb4651161007c578063a22cb465146102ad578063b88d4fde146102c0578063bae63e00146102d3578063c87b56dd146102f3578063e985e9c514610306578063f2fde38b1461031957600080fd5b80636c0360eb1461026857806370a0823114610270578063715018a61461028357806375794a3c1461028b5780638da5cb5b1461029457806395d89b41146102a557600080fd5b80632b2f0a0c116101155780632b2f0a0c146101e2578063336ccba5146101f957806342842e0e1461021c57806355f804b31461022f5780636352211e146102425780636a6278421461025557600080fd5b806301ffc9a71461015257806306fdde031461017a578063081812fc1461018f578063095ea7b3146101ba57806323b872dd146101cf575b600080fd5b610165610160366004610f44565b61032c565b60405190151581526020015b60405180910390f35b61018261037e565b6040516101719190610fb1565b6101a261019d366004610fc4565b610410565b6040516001600160a01b039091168152602001610171565b6101cd6101c8366004610ff9565b610439565b005b6101cd6101dd366004611023565b610448565b6101eb600a5481565b604051908152602001610171565b610165610207366004610fc4565b6000908152600b602052604090205460ff1690565b6101cd61022a366004611023565b6104d8565b6101cd61023d3660046110eb565b6104f8565b6101a2610250366004610fc4565b61050c565b6101cd610263366004611134565b610517565b6101826105d5565b6101eb61027e366004611134565b610663565b6101cd6106ab565b6101eb60075481565b6006546001600160a01b03166101a2565b6101826106bf565b6101cd6102bb36600461114f565b6106ce565b6101cd6102ce36600461118b565b6106d9565b6101eb6102e1366004611134565b60096020526000908152604090205481565b610182610301366004610fc4565b6106f1565b610165610314366004611207565b610759565b6101cd610327366004611134565b610787565b60006001600160e01b031982166380ac58cd60e01b148061035d57506001600160e01b03198216635b5e139f60e01b145b8061037857506301ffc9a760e01b6001600160e01b03198316145b92915050565b60606000805461038d9061123a565b80601f01602080910402602001604051908101604052809291908181526020018280546103b99061123a565b80156104065780601f106103db57610100808354040283529160200191610406565b820191906000526020600020905b8154815290600101906020018083116103e957829003601f168201915b5050505050905090565b600061041b826107c5565b506000828152600460205260409020546001600160a01b0316610378565b6104448282336107fe565b5050565b6001600160a01b03821661047757604051633250574960e11b8152600060048201526024015b60405180910390fd5b600061048483833361080b565b9050836001600160a01b0316816001600160a01b0316146104d2576040516364283d7b60e01b81526001600160a01b038086166004830152602482018490528216604482015260640161046e565b50505050565b6104f3838383604051806020016040528060008152506106d9565b505050565b610500610904565b600861044482826112ba565b6000610378826107c5565b61051f610904565b600a546001600160a01b038216600090815260096020526040902054106105885760405162461bcd60e51b815260206004820152601e60248201527f4d6178207469636b657473207065722077616c6c657420726561636865640000604482015260640161046e565b61059481600754610931565b600780549060006105a48361137a565b90915550506001600160a01b03811660009081526009602052604081208054916105cd8361137a565b919050555050565b600880546105e29061123a565b80601f016020809104026020016040519081016040528092919081815260200182805461060e9061123a565b801561065b5780601f106106305761010080835404028352916020019161065b565b820191906000526020600020905b81548152906001019060200180831161063e57829003601f168201915b505050505081565b60006001600160a01b03821661068f576040516322718ad960e21b81526000600482015260240161046e565b506001600160a01b031660009081526003602052604090205490565b6106b3610904565b6106bd600061094b565b565b60606001805461038d9061123a565b61044433838361099d565b6106e4848484610448565b6104d23385858585610a3c565b60606106fc826107c5565b506000610707610b67565b905060008151116107275760405180602001604052806000815250610752565b8061073184610b76565b6040516020016107429291906113a1565b6040516020818303038152906040525b9392505050565b6001600160a01b03918216600090815260056020908152604080832093909416825291909152205460ff1690565b61078f610904565b6001600160a01b0381166107b957604051631e4fbdf760e01b81526000600482015260240161046e565b6107c28161094b565b50565b6000818152600260205260408120546001600160a01b03168061037857604051637e27328960e01b81526004810184905260240161046e565b6104f38383836001610c09565b6000828152600260205260408120546001600160a01b039081169083161561083857610838818486610d0f565b6001600160a01b0381161561087657610855600085600080610c09565b6001600160a01b038116600090815260036020526040902080546000190190555b6001600160a01b038516156108a5576001600160a01b0385166000908152600360205260409020805460010190555b60008481526002602052604080822080546001600160a01b0319166001600160a01b0389811691821790925591518793918516917fddf252ad1be2c89b69c2b068fc378daa952ba7f163c4a11628f55a4df523b3ef91a4949350505050565b6006546001600160a01b031633146106bd5760405163118cdaa760e01b815233600482015260240161046e565b610444828260405180602001604052806000815250610d73565b600680546001600160a01b038381166001600160a01b0319831681179093556040519116919082907f8be0079c531659141344cd1fd0a4f28419497f9722a3daafe3b4186f6b6457e090600090a35050565b6001600160a01b0382166109cf57604051630b61174360e31b81526001600160a01b038316600482015260240161046e565b6001600160a01b03838116600081815260056020908152604080832094871680845294825291829020805460ff191686151590811790915591519182527f17307eab39ab6107e8899845ad3d59bd9653f200f220920489ca2b5937696c31910160405180910390a3505050565b6001600160a01b0383163b15610b6057604051630a85bd0160e11b81526001600160a01b0384169063150b7a0290610a7e9088908890879087906004016113d0565b6020604051808303816000875af1925050508015610ab9575060408051601f3d908101601f19168201909252610ab69181019061140d565b60015b610b22573d808015610ae7576040519150601f19603f3d011682016040523d82523d6000602084013e610aec565b606091505b508051600003610b1a57604051633250574960e11b81526001600160a01b038516600482015260240161046e565b805181602001fd5b6001600160e01b03198116630a85bd0160e11b14610b5e57604051633250574960e11b81526001600160a01b038516600482015260240161046e565b505b5050505050565b60606008805461038d9061123a565b60606000610b8383610d8b565b600101905060008167ffffffffffffffff811115610ba357610ba361105f565b6040519080825280601f01601f191660200182016040528015610bcd576020820181803683370190505b5090508181016020015b600019016f181899199a1a9b1b9c1cb0b131b232b360811b600a86061a8153600a8504945084610bd757509392505050565b8080610c1d57506001600160a01b03821615155b15610cdf576000610c2d846107c5565b90506001600160a01b03831615801590610c595750826001600160a01b0316816001600160a01b031614155b8015610c6c5750610c6a8184610759565b155b15610c955760405163a9fbf51f60e01b81526001600160a01b038416600482015260240161046e565b8115610cdd5783856001600160a01b0316826001600160a01b03167f8c5be1e5ebec7d5bd14f71427d1e84f3dd0314c0f7b2291e5b200ac8c7c3b92560405160405180910390a45b505b5050600090815260046020526040902080546001600160a01b0319166001600160a01b0392909216919091179055565b610d1a838383610e63565b6104f3576001600160a01b038316610d4857604051637e27328960e01b81526004810182905260240161046e565b60405163177e802f60e01b81526001600160a01b03831660048201526024810182905260440161046e565b610d7d8383610ec9565b6104f3336000858585610a3c565b60008072184f03e93ff9f4daa797ed6e38ed64bf6a1f0160401b8310610dca5772184f03e93ff9f4daa797ed6e38ed64bf6a1f0160401b830492506040015b6d04ee2d6d415b85acef81000000008310610df6576d04ee2d6d415b85acef8100000000830492506020015b662386f26fc100008310610e1457662386f26fc10000830492506010015b6305f5e1008310610e2c576305f5e100830492506008015b6127108310610e4057612710830492506004015b60648310610e52576064830492506002015b600a83106103785760010192915050565b60006001600160a01b03831615801590610ec15750826001600160a01b0316846001600160a01b03161480610e9d5750610e9d8484610759565b80610ec157506000828152600460205260409020546001600160a01b038481169116145b949350505050565b6001600160a01b038216610ef357604051633250574960e11b81526000600482015260240161046e565b6000610f018383600061080b565b90506001600160a01b038116156104f3576040516339e3563760e11b81526000600482015260240161046e565b6001600160e01b0319811681146107c257600080fd5b600060208284031215610f5657600080fd5b813561075281610f2e565b60005b83811015610f7c578181015183820152602001610f64565b50506000910152565b60008151808452610f9d816020860160208601610f61565b601f01601f19169290920160200192915050565b6020815260006107526020830184610f85565b600060208284031215610fd657600080fd5b5035919050565b80356001600160a01b0381168114610ff457600080fd5b919050565b6000806040838503121561100c57600080fd5b61101583610fdd565b946020939093013593505050565b60008060006060848603121561103857600080fd5b61104184610fdd565b925061104f60208501610fdd565b9150604084013590509250925092565b634e487b7160e01b600052604160045260246000fd5b600067ffffffffffffffff808411156110905761109061105f565b604051601f8501601f19908116603f011681019082821181831017156110b8576110b861105f565b816040528093508581528686860111156110d157600080fd5b858560208301376000602087830101525050509392505050565b6000602082840312156110fd57600080fd5b813567ffffffffffffffff81111561111457600080fd5b8201601f8101841361112557600080fd5b610ec184823560208401611075565b60006020828403121561114657600080fd5b61075282610fdd565b6000806040838503121561116257600080fd5b61116b83610fdd565b91506020830135801515811461118057600080fd5b809150509250929050565b600080600080608085870312156111a157600080fd5b6111aa85610fdd565b93506111b860208601610fdd565b925060408501359150606085013567ffffffffffffffff8111156111db57600080fd5b8501601f810187136111ec57600080fd5b6111fb87823560208401611075565b91505092959194509250565b6000806040838503121561121a57600080fd5b61122383610fdd565b915061123160208401610fdd565b90509250929050565b600181811c9082168061124e57607f821691505b60208210810361126e57634e487b7160e01b600052602260045260246000fd5b50919050565b601f8211156104f357600081815260208120601f850160051c8101602086101561129b5750805b601f850160051c820191505b81811015610b5e578281556001016112a7565b815167ffffffffffffffff8111156112d4576112d461105f565b6112e8816112e2845461123a565b84611274565b602080601f83116001811461131d57600084156113055750858301515b600019600386901b1c1916600185901b178555610b5e565b600085815260208120601f198616915b8281101561134c5788860151825594840194600190910190840161132d565b508582101561136a5787850151600019600388901b60f8161c191681555b5050505050600190811b01905550565b60006001820161139a57634e487b7160e01b600052601160045260246000fd5b5060010190565b600083516113b3818460208801610f61565b8351908301906113c7818360208801610f61565b01949350505050565b6001600160a01b038581168252841660208201526040810183905260806060820181905260009061140390830184610f85565b9695505050505050565b60006020828403121561141f57600080fd5b815161075281610f2e56fea26469706673582212201c124c00e82e5a38a4f2af07a785a525a5835709dfdebc155825f867e0f0965964736f6c63430008140033",
  "linkReferences": {},
  "deployedLinkReferences": {}
}