{
  "_format": "hh-sol-artifact-1",
  "contractName": "TicketNFT",
  "sourceName": "contracts/TicketNFT.sol",
  "abi": [
    {
      "inputs": [
        {
          "internalType": "string",
          "name": "_name",
          "type": "string"
        },
        {
          "internalType": "string",
          "name": "_symbol",
          "type": "string"
        },
        {
          "internalType": "string",
          "name": "_uri",
          "type": "string"
        },
        {
          "internalType": "uint256",
          "name": "_maxTicketsPerWallet",
          "type": "uint256"
        },
        {
          "internalType": "address",
          "name": "_initialOwner",
          "type": "address"
        }
      ],
      "stateMutability": "nonpayable",
      "type": "constructor"
    },
    {
      "inputs": [
        {
          "internalType": "address",
          "name": "sender",
          "type": "address"
        },
        {
          "internalType": "uint256",
          "name": "tokenId",
          "type": "uint256"
        },
        {
          "internalType": "address",
          "name": "owner",
          "type": "address"
        }
      ],
      "name": "ERC721IncorrectOwner",
      "type": "error"
    },
    {
      "inputs": [
        {
          "internalType": "address",
          "name": "operator",
          "type": "address"
        },
        {
          "internalType": "uint256",
          "name": "tokenId",
          "type": "uint256"
        }
      ],
      "name": "ERC721InsufficientApproval",
      "type": "error"
    },
    {
      "inputs": [
        {
          "internalType": "address",
          "name": "approver",
          "type": "address"
        }
      ],
      "name": "ERC721InvalidApprover",
      "type": "error"
    },
    {
      "inputs": [
        {
          "internalType": "address",
          "name": "operator",
          "type": "address"
        }
      ],
      "name": "ERC721InvalidOperator",
      "type": "error"
    },
    {
      "inputs": [
        {
          "internalType": "address",
          "name": "owner",
          "type": "address"
        }
      ],
      "name": "ERC721InvalidOwner",
      "type": "error"
    },
    {
      "inputs": [
        {
          "internalType": "address",
          "name": "receiver",
          "type": "address"
        }
      ],
      "name": "ERC721InvalidReceiver",
      "type": "error"
    },
    {
      "inputs": [
        {
          "internalType": "address",
          "name": "sender",
          "type": "address"
        }
      ],
      "name": "ERC721InvalidSender",
      "type": "error"
    },
    {
      "inputs": [
        {
          "internalType": "uint256",
          "name": "tokenId",
          "type": "uint256"
        }
      ],
      "name": "ERC721NonexistentToken",
      "type": "error"
    },
    {
      "inputs": [
        {
          "internalType": "address",
          "name": "owner",
          "type": "address"
        }
      ],
      "name": "OwnableInvalidOwner",
      "type": "error"
    },
    {
      "inputs": [
        {
          "internalType": "address",
          "name": "account",
          "type": "address"
        }
      ],
      "name": "OwnableUnauthorizedAccount",
      "type": "error"
    },
    {
      "anonymous": false,
      "inputs": [
        {
          "indexed": true,
          "internalType": "address",
          "name": "owner",
          "type": "address"
        },
        {
          "indexed": true,
          "internalType": "address",
          "name": "approved",
          "type": "address"
        },
        {
          "indexed": true,
          "internalType": "uint256",
          "name": "tokenId",
          "type": "uint256"
        }
      ],
      "name": "Approval",
      "type": "event"
    },
    {
      "anonymous": false,
      "inputs": [
        {
          "indexed": true,
          "internalType": "address",
          "name": "owner",
          "type": "address"
        },
        {
          "indexed": true,
          "internalType": "address",
          "name": "operator",
          "type": "address"
        },
        {
          "indexed": false,
          "internalType": "bool",
          "name": "approved",
          "type": "bool"
        }
      ],
      "name": "ApprovalForAll",
      "type": "event"
    },
    {
      "anonymous": false,
      "inputs": [
        {
          "indexed": true,
          "internalType": "address",
          "name": "previousOwner",
          "type": "address"
        },
        {
          "indexed": true,
          "internalType": "address",
          "name": "newOwner",
          "type": "address"
        }
      ],
      "name": "OwnershipTransferred",
      "type": "event"
    },
    {
      "anonymous": false,
      "inputs": [
        {
          "indexed": true,
          "internalType": "address",
          "name": "from",
          "type": "address"
        },
        {
          "indexed": true,
          "internalType": "address",
          "name": "to",
          "type": "address"
        },
        {
          "indexed": true,
          "internalType": "uint256",
          "name": "tokenId",
          "type": "uint256"
        }
      ],
      "name": "Transfer",
      "type": "event"
    },
    {
      "inputs": [
        {
          "internalType": "address",
          "name": "to",
          "type": "address"
        },
        {
          "internalType": "uint256",
          "name": "tokenId",
          "type": "uint256"
        }
      ],
      "name": "approve",
      "outputs": [],
      "stateMutability": "nonpayable",
      "type": "function"
    },
    {
      "inputs": [
        {
          "internalType": "address",
          "name": "owner",
          "type": "address"
        }
      ],
      "name": "balanceOf",
      "outputs": [
        {
          "internalType": "uint256",
          "name": "",
          "type": "uint256"
        }
      ],
      "stateMutability": "view",
      "type": "function"
    },
    {
      "inputs": [],
      "name": "baseURI",
      "outputs": [
        {
          "internalType": "string",
          "name": "",
          "type": "string"
        }
      ],
      "stateMutability": "view",
      "type": "function"
    },
    {
      "inputs": [
        {
          "internalType": "uint256",
          "name": "tokenId",
          "type": "uint256"
        }
      ],
      "name": "getApproved",
      "outputs": [
        {
          "internalType": "address",
          "name": "",
          "type": "address"
        }
      ],
      "stateMutability": "view",
      "type": "function"
    },
    {
      "inputs": [
        {
          "internalType": "address",
          "name": "owner",
          "type": "address"
        },
        {
          "internalType": "address",
          "name": "operator",
          "type": "address"
        }
      ],
      "name": "isApprovedForAll",
      "outputs": [
        {
          "internalType": "bool",
          "name": "",
          "type": "bool"
        }
      ],
      "stateMutability": "view",
      "type": "function"
    },
    {
      "inputs": [],
      "name": "maxTicketsPerWallet",
      "outputs": [
        {
          "internalType": "uint256",
          "name": "",
          "type": "uint256"
        }
      ],
      "stateMutability": "view",
      "type": "function"
    },
    {
      "inputs": [
        {
          "internalType": "address",
          "name": "to",
          "type": "address"
        }
      ],
      "name": "mint",
      "outputs": [],
      "stateMutability": "nonpayable",
      "type": "function"
    },
    {
      "inputs": [],
      "name": "name",
      "outputs": [
        {
          "internalType": "string",
          "name": "",
          "type": "string"
        }
      ],
      "stateMutability": "view",
      "type": "function"
    },
    {
      "inputs": [],
      "name": "nextTokenId",
      "outputs": [
        {
          "internalType": "uint256",
          "name": "",
          "type": "uint256"
        }
      ],
      "stateMutability": "view",
      "type": "function"
    },
    {
      "inputs": [],
      "name": "owner",
      "outputs": [
        {
          "internalType": "address",
          "name": "",
          "type": "address"
        }
      ],
      "stateMutability": "view",
      "type": "function"
    },
    {
      "inputs": [
        {
          "internalType": "uint256",
          "name": "tokenId",
          "type": "uint256"
        }
      ],
      "name": "ownerOf",
      "outputs": [
        {
          "internalType": "address",
          "name": "",
          "type": "address"
        }
      ],
      "stateMutability": "view",
      "type": "function"
    },
    {
      "inputs": [],
      "name": "renounceOwnership",
      "outputs": [],
      "stateMutability": "nonpayable",
      "type": "function"
    },
    {
      "inputs": [
        {
          "internalType": "address",
          "name": "from",
          "type": "address"
        },
        {
          "internalType": "address",
          "name": "to",
          "type": "address"
        },
        {
          "internalType": "uint256",
          "name": "tokenId",
          "type": "uint256"
        }
      ],
      "name": "safeTransferFrom",
      "outputs": [],
      "stateMutability": "nonpayable",
      "type": "function"
    },
    {
      "inputs": [
        {
          "internalType": "address",
          "name": "from",
          "type": "address"
        },
        {
          "internalType": "address",
          "name": "to",
          "type": "address"
        },
        {
          "internalType": "uint256",
          "name": "tokenId",
          "type": "uint256"
        },
        {
          "internalType": "bytes",
          "name": "data",
          "type": "bytes"
        }
      ],
      "name": "safeTransferFrom",
      "outputs": [],
      "stateMutability": "nonpayable",
      "type": "function"
    },
    {
      "inputs": [
        {
          "internalType": "address",
          "name": "operator",
          "type": "address"
        },
        {
          "internalType": "bool",
          "name": "approved",
          "type": "bool"
        }
      ],
      "name": "setApprovalForAll",
      "outputs": [],
      "stateMutability": "nonpayable",
      "type": "function"
    },
    {
      "inputs": [
        {
          "internalType": "string",
          "name": "_newBaseURI",
          "type": "string"
        }
      ],
      "name": "setBaseURI",
      "outputs": [],
      "stateMutability": "nonpayable",
      "type": "function"
    },
    {
      "inputs": [
        {
          "internalType": "bytes4",
          "name": "interfaceId",
          "type": "bytes4"
        }
      ],
      "name": "supportsInterface",
      "outputs": [
        {
          "internalType": "bool",
          "name": "",
          "type": "bool"
        }
      ],
      "stateMutability": "view",
      "type": "function"
    },
    {
      "inputs": [],
      "name": "symbol",
      "outputs": [
        {
          "internalType": "string",
          "name": "",
          "type": "string"
        }
      ],
      "stateMutability": "view",
      "type": "function"
    },
    {
      "inputs": [
        {
          "internalType": "address",
          "name": "",
          "type": "address"
        }
      ],
      "name": "ticketsPerWallet",
      "outputs": [
        {
          "internalType": "uint256",
          "name": "",
          "type": "uint256"
        }
      ],
      "stateMutability": "view",
      "type": "function"
    },
    {
      "inputs": [
        {
          "internalType": "uint256",
          "name": "tokenId",
          "type": "uint256"
        }
      ],
      "name": "tokenURI",
      "outputs": [
        {
          "internalType": "string",
          "name": "",
          "type": "string"
        }
      ],
      "stateMutability": "view",
      "type": "function"
    },
    {
      "inputs": [
        {
          "internalType": "address",
          "name": "from",
          "type": "address"
        },
        {
          "internalType": "address",
          "name": "to",
          "type": "address"
        },
        {
          "internalType": "uint256",
          "name": "tokenId",
          "type": "uint256"
        }
      ],
      "name": "transferFrom",
      "outputs": [],
      "stateMutability": "nonpayable",
      "type": "function"
    },
    {
      "inputs": [
        {
          "internalType": "address",
          "name": "newOwner",
          "type": "address"
        }
      ],
      "name": "transferOwnership",
      "outputs": [],
      "stateMutability": "nonpayable",
      "type": "function"
    }
  ],
  "bytecode": "0x60806040523480156200001157600080fd5b5060405162001822380380620018228339810160408190526200003491620001c6565b808585600062000045838262000314565b50600162000054828262000314565b5050506001600160a01b0381166200008657604051631e4fbdf760e01b81526000600482015260240160405180910390fd5b6200009181620000af565b506008620000a0848262000314565b5050600a5550620003e0915050565b600680546001600160a01b038381166001600160a01b0319831681179093556040519116919082907f8be0079c531659141344cd1fd0a4f28419497f9722a3daafe3b4186f6b6457e090600090a35050565b634e487b7160e01b600052604160045260246000fd5b600082601f8301126200012957600080fd5b81516001600160401b038082111562000146576200014662000101565b604051601f8301601f19908116603f0116810190828211818310171562000171576200017162000101565b816040528381526020925086838588010111156200018e57600080fd5b600091505b83821015620001b2578582018301518183018401529082019062000193565b600093810190920192909252949350505050565b600080600080600060a08688031215620001df57600080fd5b85516001600160401b0380821115620001f757600080fd5b6200020589838a0162000117565b965060208801519150808211156200021c57600080fd5b6200022a89838a0162000117565b955060408801519150808211156200024157600080fd5b50620002508882890162000117565b60608801516080890151919550935090506001600160a01b03811681146200027757600080fd5b809150509295509295909350565b600181811c908216806200029a57607f821691505b602082108103620002bb57634e487b7160e01b600052602260045260246000fd5b50919050565b601f8211156200030f57600081815260208120601f850160051c81016020861015620002ea5750805b601f850160051c820191505b818110156200030b57828155600101620002f6565b5050505b505050565b81516001600160401b0381111562000330576200033062000101565b620003488162000341845462000285565b84620002c1565b602080601f831160018114620003805760008415620003675750858301515b600019600386901b1c1916600185901b1785556200030b565b600085815260208120601f198616915b82811015620003b15788860151825594840194600190910190840162000390565b5085821015620003d05787850151600019600388901b60f8161c191681555b5050505050600190811b01905550565b61143280620003f06000396000f3fe608060405234801561001057600080fd5b50600436106101425760003560e01c806370a08231116100b8578063a22cb4651161007c578063a22cb4651461027f578063b88d4fde14610292578063bae63e00146102a5578063c87b56dd146102c5578063e985e9c5146102d8578063f2fde38b146102eb57600080fd5b806370a0823114610242578063715018a61461025557806375794a3c1461025d5780638da5cb5b1461026657806395d89b411461027757600080fd5b80632b2f0a0c1161010a5780632b2f0a0c146101d757806342842e0e146101ee57806355f804b3146102015780636352211e146102145780636a627842146102275780636c0360eb1461023a57600080fd5b806301ffc9a71461014757806306fdde031461016f578063081812fc14610184578063095ea7b3146101af57806323b872dd146101c4575b600080fd5b61015a610155366004610f16565b6102fe565b60405190151581526020015b60405180910390f35b610177610350565b6040516101669190610f83565b610197610192366004610f96565b6103e2565b6040516001600160a01b039091168152602001610166565b6101c26101bd366004610fcb565b61040b565b005b6101c26101d2366004610ff5565b61041a565b6101e0600a5481565b604051908152602001610166565b6101c26101fc366004610ff5565b6104aa565b6101c261020f3660046110bd565b6104ca565b610197610222366004610f96565b6104de565b6101c2610235366004611106565b6104e9565b6101776105a7565b6101e0610250366004611106565b610635565b6101c261067d565b6101e060075481565b6006546001600160a01b0316610197565b610177610691565b6101c261028d366004611121565b6106a0565b6101c26102a036600461115d565b6106ab565b6101e06102b3366004611106565b60096020526000908152604090205481565b6101776102d3366004610f96565b6106c3565b61015a6102e63660046111d9565b61072b565b6101c26102f9366004611106565b610759565b60006001600160e01b031982166380ac58cd60e01b148061032f57506001600160e01b03198216635b5e139f60e01b145b8061034a57506301ffc9a760e01b6001600160e01b03198316145b92915050565b60606000805461035f9061120c565b80601f016020809104026020016040519081016040528092919081815260200182805461038b9061120c565b80156103d85780601f106103ad576101008083540402835291602001916103d8565b820191906000526020600020905b8154815290600101906020018083116103bb57829003601f168201915b5050505050905090565b60006103ed82610797565b506000828152600460205260409020546001600160a01b031661034a565b6104168282336107d0565b5050565b6001600160a01b03821661044957604051633250574960e11b8152600060048201526024015b60405180910390fd5b60006104568383336107dd565b9050836001600160a01b0316816001600160a01b0316146104a4576040516364283d7b60e01b81526001600160a01b0380861660048301526024820184905282166044820152606401610440565b50505050565b6104c5838383604051806020016040528060008152506106ab565b505050565b6104d26108d6565b6008610416828261128c565b600061034a82610797565b6104f16108d6565b600a546001600160a01b0382166000908152600960205260409020541061055a5760405162461bcd60e51b815260206004820152601e60248201527f4d6178207469636b657473207065722077616c6c6574207265616368656400006044820152606401610440565b61056681600754610903565b600780549060006105768361134c565b90915550506001600160a01b038116600090815260096020526040812080549161059f8361134c565b919050555050565b600880546105b49061120c565b80601f01602080910402602001604051908101604052809291908181526020018280546105e09061120c565b801561062d5780601f106106025761010080835404028352916020019161062d565b820191906000526020600020905b81548152906001019060200180831161061057829003601f168201915b505050505081565b60006001600160a01b038216610661576040516322718ad960e21b815260006004820152602401610440565b506001600160a01b031660009081526003602052604090205490565b6106856108d6565b61068f600061091d565b565b60606001805461035f9061120c565b61041633838361096f565b6106b684848461041a565b6104a43385858585610a0e565b60606106ce82610797565b5060006106d9610b39565b905060008151116106f95760405180602001604052806000815250610724565b8061070384610b48565b604051602001610714929190611373565b6040516020818303038152906040525b9392505050565b6001600160a01b03918216600090815260056020908152604080832093909416825291909152205460ff1690565b6107616108d6565b6001600160a01b03811661078b57604051631e4fbdf760e01b815260006004820152602401610440565b6107948161091d565b50565b6000818152600260205260408120546001600160a01b03168061034a57604051637e27328960e01b815260048101849052602401610440565b6104c58383836001610bdb565b6000828152600260205260408120546001600160a01b039081169083161561080a5761080a818486610ce1565b6001600160a01b0381161561084857610827600085600080610bdb565b6001600160a01b038116600090815260036020526040902080546000190190555b6001600160a01b03851615610877576001600160a01b0385166000908152600360205260409020805460010190555b60008481526002602052604080822080546001600160a01b0319166001600160a01b0389811691821790925591518793918516917fddf252ad1be2c89b69c2b068fc378daa952ba7f163c4a11628f55a4df523b3ef91a4949350505050565b6006546001600160a01b0316331461068f5760405163118cdaa760e01b8152336004820152602401610440565b610416828260405180602001604052806000815250610d45565b600680546001600160a01b038381166001600160a01b0319831681179093556040519116919082907f8be0079c531659141344cd1fd0a4f28419497f9722a3daafe3b4186f6b6457e090600090a35050565b6001600160a01b0382166109a157604051630b61174360e31b81526001600160a01b0383166004820152602401610440565b6001600160a01b03838116600081815260056020908152604080832094871680845294825291829020805460ff191686151590811790915591519182527f17307eab39ab6107e8899845ad3d59bd9653f200f220920489ca2b5937696c31910160405180910390a3505050565b6001600160a01b0383163b15610b3257604051630a85bd0160e11b81526001600160a01b0384169063150b7a0290610a509088908890879087906004016113a2565b6020604051808303816000875af1925050508015610a8b575060408051601f3d908101601f19168201909252610a88918101906113df565b60015b610af4573d808015610ab9576040519150601f19603f3d011682016040523d82523d6000602084013e610abe565b606091505b508051600003610aec57604051633250574960e11b81526001600160a01b0385166004820152602401610440565b805181602001fd5b6001600160e01b03198116630a85bd0160e11b14610b3057604051633250574960e11b81526001600160a01b0385166004820152602401610440565b505b5050505050565b60606008805461035f9061120c565b60606000610b5583610d5d565b600101905060008167ffffffffffffffff811115610b7557610b75611031565b6040519080825280601f01601f191660200182016040528015610b9f576020820181803683370190505b5090508181016020015b600019016f181899199a1a9b1b9c1cb0b131b232b360811b600a86061a8153600a8504945084610ba957509392505050565b8080610bef57506001600160a01b03821615155b15610cb1576000610bff84610797565b90506001600160a01b03831615801590610c2b5750826001600160a01b0316816001600160a01b031614155b8015610c3e5750610c3c818461072b565b155b15610c675760405163a9fbf51f60e01b81526001600160a01b0384166004820152602401610440565b8115610caf5783856001600160a01b0316826001600160a01b03167f8c5be1e5ebec7d5bd14f71427d1e84f3dd0314c0f7b2291e5b200ac8c7c3b92560405160405180910390a45b505b5050600090815260046020526040902080546001600160a01b0319166001600160a01b0392909216919091179055565b610cec838383610e35565b6104c5576001600160a01b038316610d1a57604051637e27328960e01b815260048101829052602401610440565b60405163177e802f60e01b81526001600160a01b038316600482015260248101829052604401610440565b610d4f8383610e9b565b6104c5336000858585610a0e565b60008072184f03e93ff9f4daa797ed6e38ed64bf6a1f0160401b8310610d9c5772184f03e93ff9f4daa797ed6e38ed64bf6a1f0160401b830492506040015b6d04ee2d6d415b85acef81000000008310610dc8576d04ee2d6d415b85acef8100000000830492506020015b662386f26fc100008310610de657662386f26fc10000830492506010015b6305f5e1008310610dfe576305f5e100830492506008015b6127108310610e1257612710830492506004015b60648310610e24576064830492506002015b600a831061034a5760010192915050565b60006001600160a01b03831615801590610e935750826001600160a01b0316846001600160a01b03161480610e6f5750610e6f848461072b565b80610e9357506000828152600460205260409020546001600160a01b038481169116145b949350505050565b6001600160a01b038216610ec557604051633250574960e11b815260006004820152602401610440565b6000610ed3838360006107dd565b90506001600160a01b038116156104c5576040516339e3563760e11b815260006004820152602401610440565b6001600160e01b03198116811461079457600080fd5b600060208284031215610f2857600080fd5b813561072481610f00565b60005b83811015610f4e578181015183820152602001610f36565b50506000910152565b60008151808452610f6f816020860160208601610f33565b601f01601f19169290920160200192915050565b6020815260006107246020830184610f57565b600060208284031215610fa857600080fd5b5035919050565b80356001600160a01b0381168114610fc657600080fd5b919050565b60008060408385031215610fde57600080fd5b610fe783610faf565b946020939093013593505050565b60008060006060848603121561100a57600080fd5b61101384610faf565b925061102160208501610faf565b9150604084013590509250925092565b634e487b7160e01b600052604160045260246000fd5b600067ffffffffffffffff8084111561106257611062611031565b604051601f8501601f19908116603f0116810190828211818310171561108a5761108a611031565b816040528093508581528686860111156110a357600080fd5b858560208301376000602087830101525050509392505050565b6000602082840312156110cf57600080fd5b813567ffffffffffffffff8111156110e657600080fd5b8201601f810184136110f757600080fd5b610e9384823560208401611047565b60006020828403121561111857600080fd5b61072482610faf565b6000806040838503121561113457600080fd5b61113d83610faf565b91506020830135801515811461115257600080fd5b809150509250929050565b6000806000806080858703121561117357600080fd5b61117c85610faf565b935061118a60208601610faf565b925060408501359150606085013567ffffffffffffffff8111156111ad57600080fd5b8501601f810187136111be57600080fd5b6111cd87823560208401611047565b91505092959194509250565b600080604083850312156111ec57600080fd5b6111f583610faf565b915061120360208401610faf565b90509250929050565b600181811c9082168061122057607f821691505b60208210810361124057634e487b7160e01b600052602260045260246000fd5b50919050565b601f8211156104c557600081815260208120601f850160051c8101602086101561126d5750805b601f850160051c820191505b81811015610b3057828155600101611279565b815167ffffffffffffffff8111156112a6576112a6611031565b6112ba816112b4845461120c565b84611246565b602080601f8311600181146112ef57600084156112d75750858301515b600019600386901b1c1916600185901b178555610b30565b600085815260208120601f198616915b8281101561131e578886015182559484019460019091019084016112ff565b508582101561133c5787850151600019600388901b60f8161c191681555b5050505050600190811b01905550565b60006001820161136c57634e487b7160e01b600052601160045260246000fd5b5060010190565b60008351611385818460208801610f33565b835190830190611399818360208801610f33565b01949350505050565b6001600160a01b03858116825284166020820152604081018390526080606082018190526000906113d590830184610f57565b9695505050505050565b6000602082840312156113f157600080fd5b815161072481610f0056fea2646970667358221220a71663996d664907f191f3a0edcf5cabe264e43257967bcef7c2277ee11f994d64736f6c63430008140033",
  "linkReferences": {},
  "deployedLinkReferences": {}
}